:020000040800F2
:100000003035002005030008192D0008152D0008C3
:10001000172D0008531700084D3A00080000000093
:10002000000000000000000000000000193300087C
:100030005517000800000000AD2F000875350008B6
:100040001F0300081F0300081F0300081F03000808
:100050001F0300081F0300081F0300081F030008F8
:100060001F0300081F0300081F0300081F030008E8
:100070001F0300081F0300081F0300081F030008D8
:100080001F0300081F0300081F0300081F030008C8
:100090001F0300081F0300081F0300085F17000864
:1000A0001F0300081F0300081F0300081F030008A8
:1000B0001F03000800000000000000001F030008EC
:1000C0001F03000800000000000000001F030008DC
:1000D000000000001F0300081F03000800000000CC
:1000E000571700081F030008000000000000000070
:1000F0000000000000000000000000000000000000
:100100000000000000000000000000001F030008C5
:1001100000000000000000001D3600081F0300085A
:100120001F0300081F0300081F0300081F03000827
:100130001F03000800000000000000000000000095
:100140001F0300081F0300081F0300081F03000807
:100150001F0300081F0300081F0300081F030008F7
:100160001F0300081F0300081F0300080000000011
:100170001F0300081F03000800000000000000002B
:100180001F0300081F0300081F03000800F002F807
:1001900000F0A8F814A696E8000CB244B344DA457F
:1001A00001D100F09FF8BAE80F000FA696E83000E2
:1001B000A5EB040504EB0607AAEB0704A7F101076A
:1001C0004FEA15154FEA3414A4F10104AC4201D3EF
:1001D00000F088F813F0010F18BFFB1A43F0010379
:1001E00000F001F8DBE71847886B0000A86B0000FF
:1001F000103A24BF78C878C1FAD8520724BF30C853
:1002000030C144BF04680C607047000070470000B4
:100210000023002400250026103A28BF78C1FBD80F
:10022000520728BF30C148BF0B6070476E2900F0ED
:100230008982702900F0D183662906F096836529AA
:1002400006F09383672906F09083612906F08F8377
:1002500003681B0A28BF41F08001692900F036823B
:10026000642900F03382752900F030826F2900F094
:100270005F83782900F09D83E92900F0F982E42961
:1002800000F0F682F52900F0F382EF2900F05C839C
:10029000F82900F09C830368DB0928BF41F0800146
:1002A000632901F0D880732901F0DD80E32901F092
:1002B000E880F32901F0ED80002070471FB506F0BB
:1002C00047FB01F03BF904000020002106F02AFB67
:1002D000401C60600020002106F00EFBE0601FBDA6
:1002E00010B510BD01F0FDF81146FFF7E7FF03F070
:1002F00069FD01F0D9F903B4FFF7F2FF03BC01F087
:1003000021FA00000948804709480047FEE7FEE758
:10031000FEE7FEE7FEE7FEE7FEE7FEE7FEE7FEE7B5
:1003200004480549054A064B704700000D36000891
:100330008D010008302F00203035002030310020A2
:100340003031002053EA020C00F069802DE9F04BB7
:100350004FF00006002B1FBFB3FA83F503FA05F434
:1003600024FA05F65E4012BF1643B2FA82F502FA8D
:1003700005F4C5F120051EBF22FA05FC44EA0C0471
:10038000203556EA044C4FEA144418BF641C4FF061
:1003900000084FF00009904271EB030C39D300299B
:1003A00019BFB1FA81F701FA07F6B0FA80F700FA3F
:1003B00007F6C7F120071EBF20FA07FC46EA0C0625
:1003C0002037B6FBF4FCA7EB0507103F07F01F0B27
:1003D000CBF120062CFA06F60CFA0BFB44BFB34611
:1003E0000026202FA4BF5E464FF0000B5BEA060CF0
:1003F00008BF4FF0010B19EB0B0948EB0608ABFBEC
:10040000027C06FB02CC0BFB03CCC01B71EB0C0186
:10041000C1E70B46024641464846BDE8F08B13B59E
:10042000084318BF4FF0FF300146AFF30080BDE82E
:100430001C407047B2F120030AD5C2F1200320FA14
:1004400002F001FA03F340EA030021FA02F17047D7
:1004500021FA03F04FF00001704700007CB51D4603
:1004600016460C00009007D04142A14202D320441E
:10047000401E01E04FF0FF30064B7B442A466946A0
:100480000190304600F077F9002C02D0009A00214C
:1004900011707CBD1F03000010B5431C02E010F872
:1004A000011B71B18107FAD14FF0013202C88C1AD9
:1004B0008C4314EAC211F9D0C01A0A0603D0C01E38
:1004C00010BDC01A10BD0A0401D0801E10BD090263
:1004D000FCD0401E10BD032A40F2308010F0030C07
:1004E00000F0158011F8013BBCF1020F624498BF87
:1004F00011F801CB00F8013B38BF11F8013BA2F124
:10050000040298BF00F801CB38BF00F8013B11F09E
:10051000030300F03483083AC0F0088051F8043B2C
:10052000083A51F804CBA0E80810F5E7121D5CBFAB
:1005300051F8043B40F8043BAFF30080D20724BFDE
:1005400011F8013B11F801CB48BF11F8012B24BF72
:1005500000F8013B00F801CB48BF00F8012B7047C1
:1005600002F0FF0343EA032242EA024200F024B809
:100570004FF000020429C0F0128010F0030C00F0CC
:100580001B80CCF1040CBCF1020F18BF00F8012B4A
:10059000A8BF20F8022BA1EB0C0100F00DB85FEA18
:1005A000C17C24BF00F8012B00F8012B48BF00F8E4
:1005B000012B70474FF0000200B513469446964653
:1005C000203922BFA0E80C50A0E80C50B1F1200166
:1005D000BFF4F7AF090728BFA0E80C5048BF0CC014
:1005E0005DF804EB890028BF40F8042B08BF704772
:1005F00048BF20F8022B11F0804F18BF00F8012BE4
:10060000704770477047704770B504468569006849
:10061000C10601D5302600E02026C00707D070BDF6
:10062000D4E9012130469047206A401C20626D1EAB
:10063000F6D570BD70B5044685690078C00707D14E
:1006400070BDD4E9012120209047206A401C20621F
:100650006D1EF6D570BD09684A0501D540B27047D8
:10066000C905FCD500B2704709684A0501D5C0B27A
:100670007047C905FCD580B2704770B50C46054679
:10068000012A05D02878800600D5EA69002302E017
:10069000012305E05B1C934202D2E05C0028F9D103
:1006A000A869E618C01AA861286A18442862284672
:1006B000FFF7AAFF04E0D5E9012114F8010B9047E8
:1006C000B442F8D32846FFF7B5FF70BD2DE9F041DD
:1006D0000646002410687529314616A510D0FFF78C
:1006E000BAFF002802DA404213A507E031688A0702
:1006F00001D512A502E0490704D511A5012401E0A6
:10070000FFF7B2FF00210A2206F1240709E0B0FB3F
:10071000F2FCB0FBF2F302FB1C00303078541846B8
:10072000491C0028F3D123462A463046BDE8F04153
:1007300000F09CBA000000002D0000002B0000001B
:100740002000000011680268006A530501D5087096
:100750000AE0D30501D5088006E0130603D5C217C9
:10076000C1E9000200E008600120704701694A1CED
:1007700002610878704700B58FB0CDE901310021E2
:10078000059105497944CDE903101146684600F00A
:100790002FF90FB000BD0000E5FFFFFFD1E90023F6
:1007A0009A4202D2531C0B60107070472DE9FF5F14
:1007B00015468A460446DFF8AC80F8440027D8E99D
:1007C00000103E46CDE9001010E03AF816106A46D7
:1007D00002A800F062FE411C07D02178890603D5EB
:1007E000E269391891420DD80744761C20788006BA
:1007F00002D5E069B84205DDAE42E6DB3AF8160004
:100800000028E2D1A069C01BA0612046FFF7FCFED2
:10081000D8E90010CDE90010002017E03AF81810D0
:100820006A4602A800F039FEB0F1FF3F81460BD0C6
:1008300000250DF1080B05E0D4E901211BF80500A6
:1008400090476D1C4D45F7D308F10100B04280463A
:10085000E4DB206A384420622046FFF7EBFE00F01C
:1008600003B80000B66100003FBCBDE8C09F0000B7
:100870002DE9F0418046D21D22F007020025D2E981
:100880000002F52915A614D0011E72F1000106DA46
:100890000023D0EB030063EB020211A608E0D8F8B6
:1008A00000108B0701D50FA602E0490701D50EA65F
:1008B00001251146002408F1240704E000F091F915
:1008C00030323A55641C50EA0102F7D12B463246C9
:1008D00021464046BDE8F04100F0C8B900000000E4
:1008E0002D0000002B0000002000000030B400218B
:1008F00000F1240408E002F00705D208303542EA8E
:100900004372DB086554491C52EA0305F3D10468BD
:10091000002310A2250708D504F020040C4304D0BE
:10092000C46901230CA2641EC46130BC00F09EB9EE
:1009300010B5044621461068FFF796FE0246204691
:10094000BDE810400023D1E7D21D22F00701D1E914
:100950000023CBE70000000030000000F0B40D469B
:100960000188090502D5214C7C4402E01F4C7C44DF
:100970000E34002100F1240608E002F00F071209EE
:10098000E75D42EA03721B097754491C52EA0307E8
:10099000F3D102780023120704D5702D06D009B1D7
:1009A000022311342246F0BC00F060B90123103458
:1009B000F8E770B504460D4621461068FFF754FE6F
:1009C000024629462046BDE870400023C6E7D21DF6
:1009D00022F00703D3E90023C0E70368126843F05D
:1009E000200303600823C3610023B7E71060000001
:1009F0002DE9F05F894604464FF0000ADFF874B134
:100A0000FB44C0F820A02046E1688847002874D045
:100A1000252806D0D4E901219047206A401C206295
:100A2000F1E700265F462046E16888472028054612
:100A300007DB312D05D2781910F8200C08B10643D8
:100A4000F1E7B00701D526F00406C4F81CA0002782
:100A5000C4F818A02A2D09D0284605F045FF38B360
:100A600004EB8708303DC8F8185019E059F8041B0A
:100A7000204604EB87029161E1688847012F054613
:100A800018D1E069002820DA26F020061DE0D8F809
:100A9000180000EB800005EB40003038C8F8180063
:100AA0002046E1688847054605F01EFF0028EED184
:100AB000012F0AD02E2D08D12046E16888477F1CDF
:100AC0000546022F46F02006C4DBA069002803DAA1
:100AD000404246F00106A061F00701D026F0100662
:100AE0006C2D0BD0682D09D04C2D39D06A2D35D006
:100AF000742D35D07A2D33D016E038E0E1682F46DA
:100B000020468847B842054609D16C2F26D04FF4BD
:100B10008060E168064320468847054604E06C2F64
:100B20001AD04FF4807006430DB3A5F14100192887
:100B300002D8203546F400664A46294620462660FB
:100B40004E46FFF773FB80B101280BD0F61D26F04F
:100B5000070000F1080956E74020E4E78020D8E7C5
:100B60000020D6E706F104094DE7284652E7206A3F
:100B700000F002B8A05F000030BCBDE8C09F10B517
:100B8000203AC0F00B80B1E81850A0E81850B1E846
:100B90001850A0E81850203ABFF4F5AF5FEA027C85
:100BA00024BFB1E81850A0E8185044BF18C918C0B5
:100BB000BDE810405FEA827C24BF51F8043B40F856
:100BC000043B08BF7047D20728BF31F8023B48BF3B
:100BD00011F8012B28BF20F8023B48BF00F8012B79
:100BE000704730B5B0F10A0271F100034FEA900E80
:100BF0004EEA817EB0EB0E0061EB91014FEA101ED0
:100C00004EEA017E10EB0E0041EB11114FEA102E5F
:100C10004EEA016E10EB0E0041EB11214FEA104E2F
:100C20004EEA014E10EB0E0041EB1141401841F12C
:100C300000014FEAD00040EA41704FEAD1014FEA8B
:100C4000810444EA907410EB800544EB01046D19B3
:100C500044EB0404521BA3414FF0000348BF0A3287
:100C600000D530BD401C41F1000130BD2DE9F047F9
:100C70000D4699469246044600F12408016888060C
:100C800004D5E06921F01001216000E00120A842B4
:100C900001DD471B00E00027A1697A1902EB09007A
:100CA000081AA0612078C00602D42046FFF7ACFCE9
:100CB000002608E0D4E901211AF806009047206ACE
:100CC000401C761C20624E45F4DB2078C0060AD515
:100CD0002046FFF799FC06E0D4E901213020904737
:100CE000206A401C2062381EA7F10107F4DC07E0EF
:100CF000D4E9012118F805009047206A401C2062C1
:100D0000281EA5F10105F3DC2046FFF793FC2078AF
:100D1000000602D50220BDE8F0870120FBE72DE99F
:100D2000FF4F0C461E464FF0FF378BB0D2E9000153
:100D3000DDF860800A908A46C1F30A5505B93D4640
:100D4000002108464FF00000BAF1000F00F4400007
:100D500005DA00EB80004FF4400101EA50004FEA51
:100D60009059B9F1010F00DDB9460A9850EA4A00DE
:100D70000ED044F61050A5F2FF3545432F14B8F1BC
:100D8000000F1ED07542291E1EDDC9F100021CE0B5
:100D9000B8F1010F4FF0000001D0302103E0F24321
:100DA00005E02154401CB042FBDB3046002200210C
:100DB00021540B99C1F80880C1E900200FB000F060
:100DC000BCB9BD1B6D1CDEE74A4600DA694206A8C5
:100DD00000F0F8FB06AB93E8070003AB83E80700DD
:100DE00050460A9905F0A0F98DE80700A0F50050DB
:100DF0001F3800900398002D0ADD42F21F014A4679
:100E00000844002303A90390684605F009FC09E0A3
:100E1000A0F500504A461F38002303A903906846F6
:100E200005F013FC8DE807000004000C03D04FF020
:100E3000FF30410800E01046B8F1000F03D0002257
:100E4000009215461EE0751E05D4FFF7CAFE30322B
:100E500062556D1EF9D5B3460122084302D0002227
:100E60007F1C04E02078302801D100227F1E002A58
:100E7000099784D01DE0112D07DAFFF7B2FE30325A
:100E800062556D1C50EA0102F5D1084302D000986A
:100E9000C8B10EE00021681E05E0235C625C63546B
:100EA0002254401E491C8142F7DBAB46A81B401E62
:100EB0000990002004F80B000B98099AC0F80880EC
:100EC000C0E9002B7AE711264FF0000857E72DE91B
:100ED000F04F88460446D21D22F0070191B0D1E9B7
:100EE0000001CDE90A0105F0E7FC02460B98C00FAE
:100EF00001D02D2007E02068810701D52B2002E0DA
:100F0000202101EAC000032A099001D0072A05DB4D
:100F100003464146204600F015FB0BE12078800691
:100F200001D5E06900E00620B8F1650F814606D0E2
:100F3000B8F1660F18D0B8F1670F70D131E000201A
:100F4000B9F1110F009001DB112301E009F1010358
:100F50000AAA01A90CA8FFF7E2FEDDE90C70002641
:100F600009F10105834647E001204B4600904FF010
:100F700000470AAA01A90CA8FFF7D1FEDDE90DB0D0
:100F80000C995D46002610B909F101000D18B9EB66
:100F9000050003D4C0F1FF3609F10105A5EB0900F6
:100FA0002BE0B9F1010F01DA4FF001090020B9F18E
:100FB000110F0090484601DD112300E003460AAA04
:100FC00001A90CA8FFF7ABFEDDE90C704D46002629
:100FD0008346207800070AD4AB4500DA5D4601A8B5
:100FE000012D04DD411911F8011C302907D04F45AE
:100FF00002DA17F1040F04DA012082460FE06D1EB9
:10100000EEE7002F02DCED1B3E4403E0781CA84213
:1010100000DD7D1CB81B00F1010A4FF0004720786D
:10102000000703D4AA4501DB4FF0FF3A0021B7F1D6
:10103000004F0DF143088DF8431024D002202B23DC
:10104000002F01DA7F422D230A21021EA0F10100A8
:1010500000DC5FB197FBF1FC97FBF1F201FB1C7C1C
:1010600017460CF1300C08F801CDEEE7A8F10100AD
:1010700003702188090501D5452100E06521A0F113
:10108000010800F8011C09980FA9A1EB0807FF1D32
:1010900000B10120411901EBEA70A1693844081A36
:1010A000401EA0612078C00602D42046FFF7ACFAAB
:1010B000099828B1D4E901219047206A401C206298
:1010C0002078C00622D52046FFF79EFA1EE0002EAB
:1010D00004DBB34502DD01A8805D00E03020D4E9E7
:1010E00001219047206A401C2062761CAAF1010071
:1010F0005FEA000A0AD100F021FAC0680168405C8A
:10110000D4E901219047206A401C2062281EA5F1E5
:101110000105DCDC07E0D4E9012118F8010B904758
:10112000206A401C2062381EA7F10107F3DC20462C
:10113000FFF780FA032011B041E630BCBDE8C08F54
:101140002DE9F04F04460D46D21D22F0070089B06C
:10115000D0E900974846394605F0AEFB0246F80F45
:1011600001D02D2307E02068810701D52B2302E061
:10117000202101EAC0038DF820300BB1012000E0EE
:101180000020032A824601D0072A04DB2946204694
:1011900000F0D8F93FE12078800601D40D2500E069
:1011A000E569C7F30A560D2D49DA00214FEA175BAE
:1011B00008464FF00000002F00F4400007DA00EB73
:1011C00080004FF4400100EBD07001EA600081150F
:1011D000012901DD4FF0FF3100224FEA850CBCF1FF
:1011E000180F06D31346ACF118004FF08052C240DE
:1011F00003E04FF4801323FA0CF30CF10C0CBCF158
:10120000200F04D3ACF1200C09FA0CF001E007FA2E
:101210000CF000294FF0004801DD18B90FE00ED1A5
:1012200040450CD319EB02095F4121B9404502D179
:101230009F4329EA0209BBEB175F00D0761C208888
:10124000000502D57B48784402E07A487844193892
:1012500008AA302302F80A30037C0AF10101002EAB
:101260000AF1020A53546A4602DC4FF0300101E0F1
:101270004FF031014FF001088DF8001002D0A6F2B6
:10128000FF3603E059EA470100D06B4E002D02DC27
:101290002178090704D54FF002082E218DF801109E
:1012A000C44600210BE0C7F303433F01C35C491C64
:1012B0006D1E02F80830052908F1010801DA002D39
:1012C000F1DC00210CE000EB1973491C1B786D1E4A
:1012D000082902F808304FEA091908F1010801DA73
:1012E000002DF0DC21688B0602D516E0A8F101087C
:1012F000E04505DD02EB080313F8013C302BF5D087
:10130000B8F1000F09DD02EB080313F8013C2E2BA6
:1013100003D1090701D4A8F10108002D05DD3E2104
:1013200002F808106D1E08F10108407C002E02F83A
:10133000080008F1010804DA2D20764202F80800BE
:1013400002E02B2002F808000A214FF47A7086424E
:1013500008F101080BDB96FBF0F3303302F808309C
:1013600096FBF0F308F1010800FB136601E0642E20
:101370000CDB642096FBF0F3303302F8083096FB68
:10138000F0F308F1010800FB136601E00A2E06DB0A
:1013900096FBF1F0303002F8080008F1010896FBE6
:1013A000F1F001FB1060303002F80800A16908F18B
:1013B000010808EB050202EB0A00081AA061207878
:1013C000C00602D42046FFF71FF9216A08AE01EBE0
:1013D0000A00206204E0D4E9012116F8010B9047CD
:1013E000BAF1010AF7D22078C00602D52046FFF7ED
:1013F0000BF96E4609E016F8010B3E280FD0D4E930
:1014000001219047206A401C2062B8F10108F2D205
:101410002046FFF70FF909B0032000F00FB8206A4B
:101420002844206203E0D4E90121302090476D1E5A
:10143000EBD3F8E77E57000002FCFFFF30BCBDE8AD
:10144000C08F10B5436913B1AFF3008001E0FFF71F
:1014500014F9012010BD127800F124010A70002255
:101460004A700122EDE711684FF0FF32E9E710B54D
:10147000436913B1AFF3008001E0FFF797F9012052
:1014800010BD128800F1240182840022C28401224E
:10149000EDE711684FF0FF32E9E72DE9F04116461C
:1014A0000C46054600F042F8036893F80101012854
:1014B00007D0FF2C12D8185D80B101202C70BDE838
:1014C000F081D3F807013246214603F20713C7180B
:1014D0002846BC46BDE8F041002360474FF0FF308E
:1014E000EDE7754600F0EAF8AE460500694653465A
:1014F00020F00700854618B020B5FEF711FFBDE8C3
:1015000020404FF000064FF000074FF000084FF06A
:10151000000BAC46ACE8C009ACE8C009ACE8C009B7
:10152000ACE8C00921F007018D46704710B500F006
:1015300005F8001D10BD00BFED53000000487047C6
:10154000300000202DE9F0411F46044603260168C3
:10155000072A01F4006004DB08B116A505E016A512
:1015600003E008B115A500E015A521F010002060EA
:10157000A069C01EA0610FB1401EA0612046FFF708
:1015800043F84FB1D4E9012138469047206A401C06
:101590002062C01C206206E0206AFAE7D4E901213B
:1015A00015F8010B9047761EF8D22046FFF742F857
:1015B000BDE8F0814E414E006E616E00494E46001E
:1015C000696E66002DE9F047814616468AB03548B7
:1015D00078440DC88DE80D0032487844801C03AC77
:1015E0000DC884E80D0041F69B300844372190FB7C
:1015F000F1F290FBF1F5A5F1800501FB12041B3C13
:1016000002D56442012000E00020DFF898A0804667
:101610000027FA44AAF1BE0A0EE0E0070AD03246DB
:10162000684607EB470101230AEB810105F00DF83D
:101630008DE8070064107F1C002CEED1194F7F4409
:10164000AE3F19E0E80715D007EB04100DF1180ABA
:1016500090E80E008AE80E00C068F04201D19819A7
:1016600008903246012306A903A804F0EEFF03AB5D
:1016700083E807006D10641C002DE3D14FF00103D7
:1016800032466946B8F1000F03A802D004F0C8FF43
:1016900001E004F0DAFFC9E90001C9F808200AB046
:1016A000BDE8F0878454000010B50446AFF3008015
:1016B0002046BDE81040FEF71EBE000000487047FF
:1016C000100000200000000030B44FF0013C50F842
:1016D000042B51F8043BCCFA52F4D51A20D1FCB9B2
:1016E00050F8042B51F8043BCCFA52F4D51A17D118
:1016F000B4B950F8042B51F8043BCCFA52F4D51A83
:101700000ED16CB950F8042B51F8043BCCFA52F4CA
:10171000D51A05D1002CDAD030BC4FF0000070474C
:1017200029BAB1FA81F111F01801D1F120008440F9
:10173000F2D1CA40CB4012F0FF0213F0FF0330BCDD
:10174000D01A704701491820ABBEFEE72600020000
:101750007047FEE770474FF4806000F033B84FF4F5
:10176000807000F02FB8EFF3108072B6FEE7000033
:10177000B0B5044600F006F905468848611C0078BB
:1017800018BF044400F0FEF8401BA042FAD3B0BDDD
:1017900010B5044600F0F6F8B4F5806F0BD0B4F540
:1017A000807F07D106494A68821A972A22BF012200
:1017B0000A70486010BDBDE8104002F0C7B900BF14
:1017C0008800002003490A68024208BF7047086089
:1017D000FFF7DEBF140401402DE9FE4F5F4A0723E7
:1017E0004FF0000A4FF0000C904208BF0223019313
:1017F00000F12002002300920A6832FA03F508BFC4
:1018000000F0B6B8012404FA03F712EA070B00F05F
:101810009F80D1F804E0032202FA0AF50EF00308D3
:101820006FEA0509A8F10105012D0FD88568CE687A
:1018300005EA090506FA0AF635438560CEF3001578
:1018400046689D40BE433543456005E0B8F1030F4F
:1018500002D14FF0030821E0C5688E6805EA09054A
:1018600006FA0AF63543B8F1020FC56016D10CF03E
:101870001C050F22009C02FA05FE6FF0030202EA2B
:101880005307E65926EA0E0E0E6906FA05F545EAF3
:101890000E05E551D1F804E00EF00308066808FAD9
:1018A0000AF506EA090635431EF4403F05604FD0AD
:1018B0002D4A2B4CB0F1904F1568A4F57E7745F07A
:1018C00001051560156805F001050295029D23F0DC
:1018D000030557F805E007D0244ADDF8048090425C
:1018E00008BF4FF0010801E04FF000080CF00C05B4
:1018F0000F229E0802FA05F408FA05F5184A2EEAA6
:1019000004042C4347F8264094684E6844EA0B05CB
:10191000F70258BF24EA0B05124C9560B702A646A1
:10192000246844EA0B0558BF24EA0B05CEF80050A2
:10193000B703546844EA0B0558BF24EA0B05556009
:10194000F603146844EA0B0558BF24EA0B0515603A
:101950000AF1020A0CF1040C01334DE700080048BB
:10196000000401400C0401406010024000040048E3
:101970001EBCBDE8E08F1823002A08BF2823C150F1
:101980007047000006480068704700BF03480449DC
:1019900000780A6810440860704700BF000000200B
:1019A0005427002080B5032000F0A8F80F2000F095
:1019B00007F808B1012080BD00F04CF8002080BD80
:1019C00070B586B004463148016841F010010160ED
:1019D0006946006800F010000190019801A800F02D
:1019E0008DFA049D00F0A8FA17490026174B40F223
:1019F000E732002D8E6118BF0125A840C1E90262BF
:101A00000E615F4DB0FBF5F00138C1E900300846CA
:101A100000F0E8FF18B90C4800F0F8FF18B10546CF
:101A2000284606B070BD362000F032F80F2C08D8DA
:101A3000362021460022002500F03AF804480460D0
:101A4000EEE70125ECE700BF0C010020001000408C
:101A50000400002082B00D480022816841F001019D
:101A60008160816801F0010101910199016841F0F3
:101A7000805101600F21006800F0805000900098B4
:101A80006FF0010002B000F013B800BF5810024020
:101A9000002809D41C21012201EAD00100F01F0016
:101AA00002FA00F0014A8850704700BF00E100E0F0
:101AB000F0B5184B4FF0FF361C68C4F30224E51E46
:101AC00084F0070438BF002506FA05F7BA43042C52
:101AD00028BF042406FA04F4A14300F00F04A9402F
:101AE000043C1143044A234409010244002848BF2E
:101AF00003F10C021170F0BD00E400E005494FF65F
:101B0000FF030A681A4060F30A2203481043086082
:101B1000704700BF0CED00E00000FA0510B5A649C3
:101B2000B0F5007F0A6802F4C0621ED1B2F5007FF2
:101B300023D00868012262F34A2032220860ED486F
:101B4000006850430E4AB0FBF2F0002201304C69AD
:101B5000013842F10003640501D5002BF7D1486933
:101B6000400544BF032010BD07E0B2F5806F04D0EC
:101B70000868022262F34A200860002010BD00BFFE
:101B800040420F008C48006800F4C060704700BFFE
:101B90002DE9F84304464078864F00071BD5E06BDB
:101BA00068B1B0F5400F11D0B0F5000F40F0EC80F7
:101BB000386840F4803038604FF4000006E0201DA3
:101BC000002101F02FFA814638B9E06BF96F21F45A
:101BD00040010843F8674FF00009A078800750D50E
:101BE000F86C5FEAC00808D4F86C40F08050F864E4
:101BF000F86C00F08050009000986F4D286840F419
:101C000080702860FFF7BEFE06462868C00507D42E
:101C1000FFF7B8FE801B0228F7D94FF0030929E02F
:101C2000B9F1000F26D1D7F8840010F4407017D016
:101C3000216D884211D0D7F88400D7F8841041F480
:101C4000803120F44070C7F88410D7F8841021F454
:101C50008031C7F88410C7F88400C00740F097802F
:101C6000206DD7F884104FF0000921F4407108432B
:101C7000C7F88400B8F1000F03D4F86C20F080504E
:101C8000F8642068C10705D0216AFA6F22F00302C8
:101C90001143F967810705D5616AFA6F22F00C02DA
:101CA0001143F967810605D5A16AFA6F22F44062F3
:101CB0001143F967810505D5616BFA6F22F4402263
:101CC0001143F967410505D5A16BFA6F22F4401263
:101CD0001143F967410605D5E16AFA6F22F44052D3
:101CE0001143F967C10505D5216BFA6F22F4403223
:101CF0001143F967810413D5216C01F053F807D023
:101D0000B1F1006F0CD1396841F48011396007E0FE
:101D1000201D012101F086F9002818BF81462068A6
:101D2000410313D5616C01F03DF807D0B1F1006FAC
:101D30000CD1396841F48011396007E0201D012180
:101D400001F070F9002818BF81462068410410D5C1
:101D5000A16CFA6F22F040520A43B1F1805FFA673A
:101D600007D1201D022101F05DF9002818BF81462E
:101D70002068000405D5E06CF96F21F0804108432C
:101D8000F8674846BDE8F8834FF0010925E7FFF7FB
:101D9000F9FD064641F288354FF00309D7F8840073
:101DA00080073FF55DAFFFF7EDFD801BA842F5D939
:101DB00060E700BF0C100240007000402DE9F843BE
:101DC000002800F092805B4D04468846286800F0A9
:101DD000070081420AD9286820F0070040EA08007D
:101DE0002860286800F0070040457ED120685D4EDD
:101DF00010F002010AD0A268336803F0F0039A429F
:101E000004D9336823F0F0031A433260C20731D09B
:101E100056F8081C606848B1022804D0032808D18D
:101E2000890108D461E0890305D45EE0890702D402
:101E30005BE0490559D53168A946354621F00301D3
:101E4000084301F011F8064641F2883760682968B6
:101E500001F00C01B1EB800F07D0FFF793FD801B61
:101E6000B842F3D90320BDE8F88320682E464D46DA
:101E700000F0020151B1A168326802F0F002914213
:101E800004D2326822F0F00211433160296801F077
:101E9000070188450AD2296821F0070141EA0801B3
:101EA0002960296801F0070141451ED1410705D588
:101EB000E168326822F4E06211433160000706D520
:101EC0002069316821F4605141EAC000306000F0BF
:101ED0004DF83168064A01F028F8214908600648A3
:101EE0000068BDE8F843FFF76BBD0120BDE8F8834B
:101EF000706A000808000020040000200F22026021
:101F0000184A136803F003034360136803F0F003F7
:101F10008360136803F4E063C3604FF4E063126806
:101F200003EAD20202610348006800F0070008607B
:101F3000704700BF0020024009480A490A4A006869
:101F40000968C1F3022100F0D2BF00BF044805496F
:101F5000054A00680968C1F3C22100F0C8BF00BF8C
:101F60000800002008100240806A000810B52648CA
:101F70008168C36811F00C02014605D00C2A24D1F7
:101F800003F00303012B20D10B4653F8944B14F0BC
:101F9000080408BF18464FF00403006808BF082370
:101FA000D8401C4B00F00F00002A53F82030184690
:101FB00018BF00200C2A21D1C86800F003000228B5
:101FC00009D0032808BF124B06E0042A17D0082ABC
:101FD00017D10F4810BD0D4BC868CA68C9680224E4
:101FE000C2F30622C0F30210C1F341615A4301302B
:101FF00004EB4101B2FBF0F0B0FBF1F010BD03487F
:1020000010BD00200023D5E7001002400024F4009A
:1020100000127A00AC6B000840B32DE9F843E14EA2
:102020000446B06800F00C08F06800F00307207860
:10203000C0061DD42078C0075AD0B8F1080F50D080
:10204000B8F10C0F08BF032F4BD030686168B1F5B1
:10205000803F07D0B1F5A02F40F0DC8140F4802014
:102060003060306840F480303060DBE10120704740
:10207000B8F1000F19D0B8F10C0F08BF012F14D020
:102080003068A169002900F0518140F0010000F0A2
:10209000EBFE05463068800700F15781FFF772FCC0
:1020A00000F01DFFF6D9BDE8F8833068800703D53E
:1020B000A069002800F0AB81206A316809075ABF87
:1020C000D6F894100909316801F0F001884240F215
:1020D000F78001F031F8002840F0998100F046FEC9
:1020E00002E13068800303D56068002800F08F812A
:1020F0002078800728D5B8F1040F17D0B8F10C0F5D
:1021000008BF022F12D03068E168002900F09881E2
:1021100040F4807000F0A8FE0546306840050CD4FD
:10212000FFF730FC00F0DBFEF7D9BCE73068400574
:1021300003D5E068002800F06A812069716821F009
:10214000F85141EA006070602078000755D420788B
:10215000400769D42078800600F19A80A06A0028A0
:1021600000F09A81022840F0F380E16AF06800F004
:1021700003028A4240F00081216B6FF00F0202EBF4
:10218000011100F070028A4240F0F680616B00F4A9
:10219000FE42B2EB012F40F0EF80A16B00F07842DD
:1021A000B2EBC16F40F0E880E16BDE4A02EA015118
:1021B00000F4C002A1F500118A4240F0DD80216CDC
:1021C0004FF07E4200F0C06002EA016101F17E4101
:1021D000884240F0D1803068800100F15D8100F0DC
:1021E000D7FD04463068800100F15681FFF7CAFB35
:1021F000011B03200229F5D955E7D6F8940061693F
:10220000002900F0818040F00100C6F89400FFF73B
:10221000B9FB0546D6F89400800798D4FFF7B2FBC7
:10222000401B0228F6D9EAE0B06D5FEAC00908D485
:10223000B06D40F08050B065B06D00F080500090FF
:102240000098B74F3868C0050FD4386840F48070E4
:102250003860FFF797FB05463868C00505D4FFF7DF
:1022600091FB00F03CFEF7D91DE7D6F89000A1687D
:10227000012908D0052940F0A98040F00400C6F8E3
:102280009000D6F8900040F00100C6F89000A8E059
:10229000D6F89800616A002900F0868040F00100BD
:1022A000C6F89800FFF76EFB0546D6F89800800741
:1022B0003FF554AFFFF766FB00F011FEF5D9F2E6EB
:1022C000316841F008013160316821F0F0010143CB
:1022D0003160B8F1000FE169726822F47F4242EA8E
:1022E0000121716000F08E80FFF740FEB168894ADD
:1022F00000F01BFE8849086088480068FFF760FB13
:1023000000287FF4D0AE95E620F00100C6F89400D6
:10231000FFF738FB0546D6F8940080077FF517AF26
:10232000FFF730FB00F0DBFDF5D9BCE620F0010043
:1023300000F09AFD0546306880077FF57BAEFFF719
:1023400021FB00F0CCFDF6D9ADE600F00FFD71E603
:10235000B8F10C0F5BD0306820F0807000F084FD85
:1023600004463068800140F19380FFF70BFB011BAE
:1023700003200229F5D996E6B8F10C0F47D0306852
:10238000400144D4306820F0807000F06DFD0546B7
:102390003068800140F19180FFF7F4FA00F09FFD72
:1023A000F6D980E60010024020F00100C6F898003F
:1023B000FFF7E8FA0546D6F8980080077FF5CEAE1D
:1023C000FFF7E0FA00F08BFDF5D96CE620F0010094
:1023D000C6F89000D6F8900020F00400C6F89000EF
:1023E000E9B3FFF7CFFA054641F28837D6F89000F7
:1023F000800744D4FFF7C6FA401BB842F6D9032041
:10240000BDE8F88300F098FE00283FF46DAF01208E
:10241000BDE8F88320F480303060306820F48020FC
:102420003060E1B3FFF7AEFA0546306880033FF550
:102430005FAEFFF7A7FA411B03206429F5D932E606
:1024400020F4807000F010FD0546306840057FF5EF
:102450007BAEFFF797FA00F042FDF6D923E6FFF7CF
:1024600091FA054641F28837D6F89000800706D5E4
:10247000FFF788FA411B0320B942F5D913E6B9F1F9
:10248000000F3FF567AEB06D20F08050B06561E69B
:10249000F06826490840F0600020BDE8F883FFF7A7
:1024A00071FA0546306880037FF522AEFFF76AFABD
:1024B000411B03206429F5D9F5E504F12C036FF0E5
:1024C0000F05194F0FCB05EB0111F5683D4028436F
:1024D0000843E16B40EA0220124A02EA01514FF040
:1024E0007E42A1F500110843216C40EAC36002EA74
:1024F000016101F17E410843F06000F049FC0446AF
:1025000030688001C8D4FFF73DFA011B032002297F
:10251000F6D9C8E5706A0008080000200400002011
:10252000007000400000E0FF8C809D01FCFFEEFE8B
:1025300038B1F8B50446406A28B100202061142063
:1025400006E0012070476068B0F5827F02D01C2051
:10255000002121500025A56294F85D0020B9204695
:1025600084F85C5000F04CF8022084F85D0020688C
:10257000E1680268B1F5E06F41F4006301F4706155
:1025800022F04002026098BF01252A03B3F5706F64
:102590001CBF0023A362D4E90135D4E904671143C9
:1025A00003F4827305F404452B4406F002052B4422
:1025B00007F001052B44A56905F400763344E6696C
:1025C00006F038063344266A06F080063344A66ACD
:1025D00006F40056334303600423626A03EA15439A
:1025E000194302F010021143626B02F0080211431A
:1025F000416000200121206684F85D10F8BD0000D4
:1026000010B586B0044601A81421FDF7D3FF206859
:102610000F49884219D10F48416941F48051416105
:10262000416901F4805100F07FFB052005900320F3
:1026300004900020039002200290E0200190009876
:1026400001A94FF09040FFF7C7F806B010BD00BFDA
:10265000003001404C1002402DE9FC411D46164659
:102660000F4600F012FC804694F85D00012804D16A
:1026700037B12EB100F037FC05D10220BDE8FC8156
:102680000120BDE8FC810320012184F85D000020C9
:102690002066E68784F85C10A687A763A4F8440048
:1026A0002064C4E91300A4F84600A1682068B1F5CD
:1026B000004F05D100F020FC016841F48041016029
:1026C0000168490603D4016841F040010160E168F6
:1026D0006268B1F5E06F1CD90AB1012E01D100F09A
:1026E000CCFB6E1CE08F00284FD0206881688907E2
:1026F00008D4FFF747F9002EF4D0A0EB0800A84259
:10270000F0D354E0A16B00F0D8FBE08F0138E087F4
:10271000E8E74FF6FE710AB1012E11D1E28F022ACD
:1027200005D337F8022BC2604FF6FE7004E03A780A
:102730000273481CA26B571CA763E28F1044E0870A
:102740006E1C4F1CE08F00B321688868800708D496
:10275000FFF718F9002EF5D0A0EB0800A842F1D33E
:1027600025E0A06BE28F022A05D330F8022BCA6065
:102770004FF6FE7104E0007808733946A06B013013
:10278000A063E08F0844E087DCE720462946424604
:1027900000F014FD08B120202066A06808B900F000
:1027A000D9FB00F0C9FB18BF0120BDE8FC8100F097
:1027B00001FBBDE8FC812DE9F8431E4615460F4696
:1027C00000F063FB94F85D10814601297AD1002F57
:1027D00000F0FC80002D00F0F980002E00F0F68063
:1027E00000F081FB7BD001204FF0000C84F85C00EE
:1027F00094F85D0004281CBF052084F85D00C4F82F
:1028000060C0A4F84660E6872068E1684368B1F5D7
:10281000E06F23F48052134698BF03F58053012ED6
:1028200018BF134643602564A4F84460A763C4E955
:1028300013CCA6870268520603D4026842F0400215
:1028400002606268731EDDF82080B3FA83F3B2FA87
:1028500082F25B0952091A43B1F5E06F42D90AB11D
:1028600000F00BFB012608F10105E08F20B9B4F858
:102870004600002800F09F802068816889070AD5FB
:10288000E18F41B1012E06D1A16B002600F015FBAE
:10289000E18F0139E1878168C9070AD0B4F8461091
:1028A00039B1216CC068012621F8020B216400F0C7
:1028B000A2FAFFF767F8002DD7D0A0EB090040453A
:1028C000D3D374E06068B0F5827F08D10220042978
:1028D00003D1A16800293FF47AAFBDE8F883022054
:1028E000BDE8F8838AB1E28F4FF6FE71022A03D366
:1028F00037F8022BC26004E03A7801310273A06B12
:10290000471CA763E08F0844E087012608F1010512
:10291000E08F18B9B4F8460000284CD020688168D0
:10292000890716D5E18FA1B1012E12D1A16BE28FDB
:10293000022A04D300F0C1FAE18F023907E00978D6
:102940000173A16B20680131A163E18F0139002679
:10295000E1878168C90722D0B4F84610F9B1B4F80C
:102960004610022912D3216CC26821F8022BB4F858
:102970004620023AA4F846202164B4F84610012902
:102980000CD8416841F48051416007E0007B216C24
:102990000870206C0130206400F02DFA0126FEF74B
:1029A000F1FF002DB4D0A0EB09004045B0D300F0FA
:1029B00001FABDE8F883204641464A4600F0FEFB96
:1029C00038B1002084F85C00202020660120BDE89A
:1029D000F88300F0B1FA18BF0120BDE8F883704712
:1029E0007047704770B110B500F0AFFA03D100F036
:1029F0005FFA00F009F800F06BFA012000F09FF98F
:102A000000F046BA012070477047000090F83D1072
:102A100001291FD1022180F83D100168C868B1F179
:102A2000804F40F00100C86005D00B48814202D0C1
:102A30000A48814209D18868094A734600F09BFA26
:102A40009E4608D0B2F5803F05D0724600F0A7FA46
:102A5000964670470120704700400140002C01401D
:102A600007000100704770B504460068C568066934
:102A7000B10710D5A9070ED56FF002010161012140
:102A800021778069800702D000F072FA01E000F03F
:102A900042FA00202077700712D5680710D5206809
:102AA0006FF00401016102212177806910F4407FF9
:102AB00002D000F05DFA01E000F02DFA002020774E
:102AC000300711D528070FD520686FF00801016184
:102AD00004212177C069800702D000F049FA01E0A3
:102AE00000F019FA00202077F00612D5E80610D57C
:102AF00020686FF01001016108212177C06910F48E
:102B0000407F02D000F034FA01E000F004FA002027
:102B10002077F00708D0E80706D020686FF00101A1
:102B20000161204600F032F816F4025F08D0280652
:102B300006D520686FF4025101612046FFF750FF6F
:102B4000F00508D5280606D520686FF4807101616C
:102B50002046FFF744FF700608D5680606D52068B2
:102B60006FF040010161204600F01AF8B00601D56F
:102B7000A80600D470BD20686FF0200101612046D6
:102B8000BDE87040FFF72DBF7047704700680349EC
:102B9000884208BFFEF7FABE704700BF0010004031
:102BA000704710B560B10446C06F08B900F0E7F98E
:102BB00000F0A7F901D000F085F900F086F908B11E
:102BC000012010BD00F06DF921F02A01816000F0B4
:102BD00003F9BDE8104000F0B9BD0000F0B59BB0AE
:102BE000044616A81421FDF7E5FC01A85021043085
:102BF000FDF7E0FC2068194988422DD10225019596
:102C000001A8FEF7C5FF08B1FEF7ADFD1448032685
:102C10000027C16841F40031C160C16801F400318E
:102C200000F082F807201996CDE917571A90042072
:102C30001690009816AC4FF090402146FEF7CCFD60
:102C40004FF400402146CDE91966CDE9175716909B
:102C50004FF09040FEF7C0FD1BB0F0BD00440040B7
:102C60004C1002402DE9F8430446C06F20281CBFD9
:102C70000220BDE8F8830D46B1B31646A2B300208A
:102C80009946C4F884002120E067FEF77BFEA4F893
:102C900052608046A4F85060A068B0F5805F01D112
:102CA0002069A0B300262F46B4F85200F8B12046A0
:102CB000802100F0D3F828BB27B117F8010B216859
:102CC000886206E036F8021B206800276FF35F2158
:102CD0008162E06F00F02100212805D1B4F8520094
:102CE0000138A4F85200DFE70120BDE8F883204650
:102CF000402100F0B3F82021E167002818BF03202D
:102D0000BDE8F8832020E0670320BDE8F8830027B2
:102D10002E46C9E7FEE7FEE7FEE7012001F0EABE26
:102D200001904FF09040284700910099016841F0D0
:102D300001010160006800F001000090704784F814
:102D4000480084F83E0084F83F0084F8400084F88E
:102D5000410084F8420084F8430084F8440084F879
:102D6000450084F8460084F847007047306840F01A
:102D700008003060D4E90701326822F0F002114304
:102D80003160716821F47F4141EA00207060704732
:102D9000306840F080703060F06840F08070F06023
:102DA000FEF7F0BDFA6F22F040620A43B1F1806F86
:102DB000FA677047002084F85C00012084F85D0009
:102DC00003207047206850E8020F216820F00100BE
:102DD00041E80202002A7047016841F001010160E8
:102DE0002046704741E80002002A7047206E40F0FC
:102DF000200020667047B4F846000138A4F8460069
:102E0000704720464FF4C06132462B4600F0EEB9C1
:102E1000D4E900014268B1F5827F22F0E00242600D
:102E20007047016851E8001F026821F0100142E874
:102E30000013002B7047016821F400510160016804
:102E400041F4005101607047016851E8001F0268B9
:102E500021F4907142E80013002B70470022434692
:102E6000CDF8009000F0AEBD3060FEF78BBD0022C3
:102E70002B460090204600F0A5BD37F8021BC1602C
:102E8000A763E08F0138E08770470446FEF77ABDFC
:102E900084F83D00002010BD204631462A4600F04F
:102EA000FDB92068416821F4904141608168704714
:102EB000002084F83C002046704731F8022BC260A5
:102EC000A1637047204600F0EDBB204600F0A2BC95
:102ED0000220211D84F83D00206800F0A5BB411BA5
:102EE00003200229704794F85C0001287047515C68
:102EF00001F01F01C8407047016821F040010160E6
:102F000070472420E0672068616A0268002922F087
:102F10000102026070474DF808ED2046FFF734FECD
:102F200020465DF808EBFFF730BEC1F30311515C9A
:102F300001F01F01C8407047012084F85D000020A7
:102F400084F85C00206E00287047044690F83D002D
:102F500000287047002001902068C16801918068B6
:102F6000019001987047206850E8000F2168704771
:102F70002046FFF777BD02400020062A7047002058
:102F800084F878002046FFF729BE016851E8021F47
:102F9000026821F0010142E80213002B7047086823
:102FA00040F001000860002070470000EFF3098046
:102FB000BFF36F8F144B1A681EF0100F08BF20ED7F
:102FC000108A20E9F04F10602DE909004FF0500001
:102FD00080F31188BFF34F8FBFF36F8F02F0B6F904
:102FE0004FF0000080F31188BDE8090019680868F7
:102FF00000F00CB81EF0100F08BF00F00CB880F302
:103000000988BFF36F8F7047D402002030C8B0E842
:10301000C04FFFF7EFBFB0EC088AB0EC08CAFFF76B
:10302000EEBF0000F8B5404F04460D46F868800733
:103030000ED0F868216800F0030088421DD1E0B18D
:103040006068F968C1F302110131814215D121E0B4
:10305000206803280BD0022805D001280DD139683B
:1030600089070AD50BE03968490506D507E03968B4
:10307000890304D43968490301D40120F8BD61688B
:103080006FF00F0202EB0111FA6822F07302114394
:103090000843F860386820F080603860FEF772FC02
:1030A00006463868000105D5FEF76CFC801B022837
:1030B000F7D930E03969A0680002012D05D07DB94B
:1030C0001C4A1140E268D20613E0184A184B02F17C
:1030D000B4621140226903EA0252A2F5001208E02C
:1030E000124A4FF07E431140626903EA026202F124
:1030F0007E42084310433861386840F08060386091
:10310000FEF740FC05463868000106D4FEF73AFC9D
:10311000401B0228F7D90320F8BDA069396908438C
:1031200038610020F8BD00BF00100240FF80FFF9A9
:103130000000E0FFFF80FF07BCB51E4D0446286875
:10314000C0000FD4286840F080502860286800F044
:10315000805001900198FEF715FD296821F08051FB
:10316000296001E0FEF70EFDB0F5007F06D1812C4D
:1031700008D30120A02C88BF02200DE0802C03D9A9
:10318000032009E0002007E0A4F17000B0FA80F00D
:103190004009802C08BF022007490A6822F0070274
:1031A00002440A60096801F00701081A18BF0120EB
:1031B000BCBD00BF581002400020024070B515464B
:1031C0000E464FF4C051044632462B4600F00EF82E
:1031D00028B9FFF761FE10B9FFF713FE18B1FFF72A
:1031E00005FE032070BD002070BD00002DE9FC47E6
:1031F000044600201E4690460D468DF80300FEF75B
:10320000C1FB301A00EB0807FEF7BCFB82462048E2
:10321000232108F1010600684843000D784301901E
:10322000D4F8009048468068284218D0B5F5C06FA1
:1032300005D199F80C008DF803009DF8030066B1E4
:10324000FEF7A0FBA0EB0A00B8420BD2019818B120
:1032500001980138019000E000272068E3E7002092
:1032600000F018B8FFF7D4FD08D1A168B1F5004F00
:1032700002D0B1F5806F01D1FFF73EFEA16AB1F532
:10328000005F01D1FFF7D7FDFFF794FD00F002B812
:10329000080000200CBCBDE8F0870000F8B515461A
:1032A0000E46FFF7F2FD281A8719FEF76BFB05465D
:1032B000184801360068C0F3CB307843009020688E
:1032C000806800065CBF0020F8BD002EF7D0FEF736
:1032D00059FB401BB84207D2009800280FBF0027B7
:1032E000009801380090EAE7FFF792FD08D1A16845
:1032F000B1F5004F02D0B1F5806F01D1FFF7FCFDB1
:10330000A16AB1F5005F01D1FFF795FDFFF752FD0E
:10331000F8BD00BF08000020064B1968086800F0DF
:103320000BB880F30988BFF36F8F4FF0000080F374
:1033300011887047D402002030C8B0E8C04FFFF7B2
:10334000F0BF0000104E00270FF268080FA530787C
:10335000012814D13770B07880F00100B070B478D3
:10336000FEF710FB0146012C03D1404601F0E0FCC2
:1033700005E0284601F0DCFC002001F0B3FB14203E
:1033800000F082FEE3E700BF880000205B256C753B
:103390005D203D3D3D3D3D20454D455247454E4319
:1033A00059204D4F4445204F4646203D3D3D3D3D33
:1033B0000D0A00005B256C755D203D3D3D3D3D20C7
:1033C000454D455247454E4359204D4F4445204FAA
:1033D0004E203D3D3D3D3D0D0A000000124C4FF09A
:1033E000FF3501260A270FF244090FF2440A0FF2B3
:1033F0004408B6FBF7F000EB800005EB400058B93D
:10340000FEF7C0FA0146A0785246002818BF4A4687
:10341000A369404601F08CFC4FF47A7000F034FE52
:103420000136013DE5E700BF880000204F4E000057
:103430006F6666005B256C755D20616C6976652042
:103440002D20656D657267656E63793D2573207308
:1034500065713D256C750D0A0000000086B06C4654
:10346000204E214FDFF884B04FF0010840F20119DF
:10347000E51DB07801282FD128461121FDF778F8F5
:10348000B0690130B0618DF80680ADF80490009706
:103490000290FEF777FA039020465946212200F069
:1034A00096FE707860B120461821BA4600F0B6FB4F
:1034B0000746FEF767FA029A01464FB117A008E0E7
:1034C000FEF760FA029A014609A001F031FC03E020
:1034D00019A001F02DFC57464FF4FA6000F0D4FD1E
:1034E000C7E700BF8800002038315747886A0008C6
:1034F0005B256C755D20776F756C64205458207364
:1035000065713D256C7520284C6F526120756E6188
:103510007661696C61626C65290D0A005B256C75CA
:103520005D205458206661696C6564207365713D47
:10353000256C750D0A0000005B256C755D205458E4
:10354000207365713D256C750D0A0000084D00243F
:10355000A878012811BF002484F0010404F00100C0
:1035600001F0C0FA4FF4FA7000F08EFDF0E700BFF2
:103570008800002080B54EF21000CEF200000068F6
:1035800002F082FB012808BF80BDBDE8804001F049
:10359000D7BF10B596B005A824210430FDF70AF86E
:1035A0004FF40070FEF7BAFA18B1EFF3108072B65C
:1035B000FEE707210220002413912821CDE9140001
:1035C00012910121CDE90F0160201191CDE90B1479
:1035D0000D901020059005A8FEF71EFD18B1EFF321
:1035E000108072B6FEE7032004210494CDE9024462
:1035F00001900F2000906846FEF7E0FB18B1EFF352
:10360000108072B6FEE716B010BD000002480168D7
:1036100041F470010160704788ED00E00148FFF758
:1036200022BA00BF0C01002070B51B4B0268984203
:1036300010D0B0F1804F03D14C6822F070022243C9
:10364000B0F1804F0AD0154CA04207D0144CA042D4
:1036500004D007E04C6822F070022243CC6822F4C8
:10366000407222430D688E684C699842C66285623A
:1036700004D00A4D40F48063AB4201D10969016373
:10368000016841F0040101600121416122F08001E3
:103690002143016070BD00BF002C01400044014087
:1036A0000040014010B5416A0A0706D50268436B25
:1036B000546824F4004423435360CA0706D00268C8
:1036C000836A546824F40034234353608A0706D580
:1036D0000268C36A546824F48034234353604A0761
:1036E00006D50268036B546824F480242343536096
:1036F000CA0606D50268836B946824F48054234379
:1037000093608A0606D50268C36B946824F400545B
:10371000234393604A060FD50268036C546824F46F
:1037200080141C43B3F5801F546005D1436C54686A
:1037300024F4C00423435360090606D50168806C55
:103740004A6822F400221043486010BDBCB504460C
:103750000020C4F88400FEF715F9054620680168CA
:10376000090712D56FF07E404FF40011FFF77FFB81
:1037700050B1FFF7F8FB20F08000FFF733FBF8D1E2
:10378000032020217C2220E020680068400714D517
:103790006FF07E404FF48001FFF769FB68B1FFF7DF
:1037A000E2FB20F49070FFF71DFBF8D1FFF70AFB56
:1037B000FCD103202021802207E020200021642268
:1037C000E067C4F8800021660020A150002184F841
:1037D0007810BCBD4DF808EDFFF736FB5DF808EB3F
:1037E000F8D14DF808EDFFF7D0FB5DF808EBF8D104
:1037F000016E012906D14DF808EDFFF712FB5DF8C7
:1038000008EBF8D12021C0F8801000218166016604
:103810007047000070B50168044680685D4ED4E9C9
:1038200003320D681043E26935406669304328432E
:1038300010430860486820F440501843564B4860D5
:10384000A06999421CBF256A28438D6825F430651C
:1038500028438860514881420CD0994206D0504894
:10386000814210D14F4851A5006807E04D480068DB
:10387000800A02E04B48006880084B4D00F00300CE
:1038800055F8205000E010254C48994210D00121F5
:10389000B2F5004F1AD1082D00F27680DFE805F06E
:1038A000053F4F74457474744D00FEF745FB3EE0D0
:1038B0000121082D00F26880DFE805F005661A6630
:1038C000146666661800FEF737FB0DE0082D5BD81E
:1038D000DFE805F005284A5A2F5A5A5A4800FEF7E1
:1038E0002BFB28E0FEF742FB10B94AE04FF4004002
:1038F000626802EB4201884245D3B0EB023F42D8F6
:10390000010E000210EB520041F100010023FCF710
:1039100019FD2B4AA0F54071914230D333E0FEF7F8
:1039200015FB04E0FEF712FB05E0FEF71FFB30B9C4
:1039300027E0FEF71BFBB8B923E04FF400406168B5
:103940004A0802EB40004FF6EF72B0FBF1F0A0F135
:103950001001914217D84FF6F0710140C0F34200B8
:1039600008440CE04FF4004061684FF6EF7200EB42
:103970005100B0FBF1F0A0F11001914203D8216891
:10398000C860002100E001210020C4E91A000846B7
:1039900070BD00BFF369FFEF0080004000440040AD
:1039A0000038014088100240006C0008010000004F
:1039B0000400000002000000080000000024F400E1
:1039C00000FD0F002DE9F047DDF8209082460068E9
:1039D000984616460F46032509F10104C16939408E
:1039E000C91BB1FA81F149098E421ED1002CF5D0D4
:1039F000FDF7C8FFA0EB0800484517D8B9F1000F44
:103A000014D0DAF8000001684907E7D5402FE5D067
:103A1000802FE3D0C16909070BD4C1690905DDD541
:103A2000032520244FF4006106E000252846BDE868
:103A3000F08701250821082401625046FFF7CAFEDD
:103A400000208AF87800CAF88440EFE7FEE700001B
:103A50009E48012281898068FDF78DBF9B48002226
:103A600081898068FDF787BF2DE9F047D4B098467B
:103A700091460E460746412919D308AC3149202208
:103A80002046FCF728FD002039463246CDE91000DB
:103A90001290204601F01DF944AE2046314601F057
:103AA000C2F806F120002021FCF784FD0AE044ACB6
:103AB000394632462046FCF70EFDA019C6F14001FA
:103AC000FCF756FD44A934AA002024AB402808D0B6
:103AD0000C5C84F0360584F05C0415541C540130F1
:103AE000F4E7DFF860A008AE202230465146FCF72C
:103AF000F2FC0027144D30464022CDE91077129792
:103B000034A9A847304649461022A8476C4630469B
:103B1000214601F088F8304651462022FCF7DBFCB4
:103B2000CDE91077129724A930464022A8473046A5
:103B300021462022A8473046414601F074F854B08F
:103B4000BDE8F087106C0008D34C000810B51220B7
:103B500000F096FF0446000706D51220082100F069
:103B6000A9FF5A4801210170600602D5574801217A
:103B7000417010BDB0B5002848D00168002945D07B
:103B8000524D90E81E0000692F1D68611EC7FFF7A7
:103B90005FFFA98A28690022FDF7EDFE1E4C0A206E
:103BA000A047A98A28690122FDF7E5FE0A20A0475F
:103BB0000120002100F07EFF0120A047012080218C
:103BC00000F078FF0120A047422000F059FF1228A2
:103BD0001ED16D4D0E2000210024A8470F2000218A
:103BE000A8470C2000F04CFF0146082060F39F011D
:103BF0000C20A84726200421A84720200021A84700
:103C000021200821A847FFF788F802E0FD2400E002
:103C1000FE2460B2B0BD00BF711700082DE9FC4161
:103C200018B10C4609B1FF2C03D9FD2460B2BDE8E0
:103C3000FC810546FFF771F8534F40204021B847FB
:103C40001220FF21B8470E2000214FF00008B8478E
:103C50000D200021B84780208DF80700FFF7FEFEF9
:103C60001A4E0DF1070101224FF0FF337068FEF785
:103C7000F3FC7068A2B229464FF0FF33FEF7ECFC6C
:103C8000FFF7E6FEE1B22220B847032086F8008065
:103C900000F030FFFDF776FE0446307890B9122030
:103CA00000F0EEFE000707D4FDF76CFE001BB0F538
:103CB0007A7FF2D9FB2406E01220082100F0FAFEF8
:103CC000012030700024FFF728F8AFE770000020D3
:103CD00080B51D2000F0D4FE00F00E0000F1700150
:103CE0001D2000F0E7FE002080BD80B51D2000F003
:103CF000C7FE00F0F100811C1D2000F0DBFE00205B
:103D000080BD0000B0B5C3040A4A410B1846002329
:103D1000FCF718FB1C4D0446C0F307410620A847DA
:103D2000C4F307210720A847E1B20820A8470020D4
:103D3000B0BD00BF0048E801062801D2FD2020E008
:103D4000B0B504460C2801D9FD2018E0C3210E4D62
:103D5000062C08BFC5213120A8470A21062C08BF20
:103D60000C213720A8471E2000F08AFE00F00B002F
:103D700040EA04100430C1B21E20A8470020BDE86C
:103D8000B04040B2704700BFB54A000880B5014658
:103D9000392000F08FFE002080BD10B504464D2074
:103DA000842100F087FE022CD8BF0224112CA8BF6A
:103DB000112404F17E0040F08001092000F07AFE19
:103DC000002010BD86B0FDF7EDFDFFF7E2FB01AC72
:103DD00014212046FCF7EEFB7648774D01224FF088
:103DE00003090127016841F004010160016801F045
:103DF000040100910099016841F00101016001682E
:103E000001F0010100910099016841F00201016097
:103E10000321006800F00200009000982846FDF79A
:103E2000AAFD2846082100224FF008080026AA46CD
:103E3000FDF7A1FD41F60300604D2146CDE9026783
:103E4000FEF76EFF02202146CDE90197CDE9036020
:103E50005046A8474FF404102146039702904FF4B0
:103E60008070FEF75DFF4FF48810214603960290A4
:103E70004FF48060FEF754FF50462146CDE90366BB
:103E8000CDE90187A847172005210022FDF710FE84
:103E90001720FDF7FDFD282005210022FDF708FE73
:103EA0002820FDF7F5FD4648464C0C214FF4E13241
:103EB000C0E90042C0E90266C0E90461C0E90666E3
:103EC000C0E90866FEF76DFE18B1EFF3108072B618
:103ED000FEE73D4807214FF400724FF4E06304F51C
:103EE0006C444FF48275C0E90A611821C0E9086684
:103EF000C0E90C6880E87000C0E90336C0E90562DB
:103F0000C161FEF715FB18B1EFF3108072B6FEE742
:103F10002E482F4CA0472FA0A04737A0A04741A074
:103F2000A04746480DF1080C019044A0031D00690C
:103F30000ECB0590ACE80E0001A8FFF71BFE08B100
:103F4000434813E04348FFF7DDFE0720FFF7F4FE88
:103F5000FFF7BEFEFFF7C9FE0220FFF71EFFF320AA
:103F6000FFF714FF3C48012141703C4800F0FCFE83
:103F7000002000F0B7FD3A4800F0F6FE00F096F899
:103F80003848394A394C0021A047334D394A00217D
:103F9000A8603748A047E8603748384A0021A04762
:103FA00028613748374A0021A047686100F092F83D
:103FB000FEE700BF4C10024000040048D91700087B
:103FC0005801002000440040A8000020006D0008B7
:103FD000694D0008416D62756C616E636520756E98
:103FE0006974202D204672656552544F53206564D4
:103FF0006974696F6E0D0A003D3D3D3D3D3D3D3D9F
:104000003D3D3D3D3D3D3D3D3D3D3D3D3D3D3D3DE0
:104010003D3D3D3D3D3D3D3D3D3D3D3D3D3D3D3DD0
:104020000D0A000043616C6C696E67206C6F7261F1
:104030005F696E69742E2E2E0D0A0000A800002004
:1040400000040048010000000004004802000000D5
:10405000BF6C0008400ECF19880000202F6D0008AB
:104060009C6C0008DD330008306C0008114100082A
:1040700045330008DC6B00085D340008546C000810
:104080004D350008786C0008EFF3058100291CBF4E
:104090006FF005007047002804BF0020704780B50E
:1040A00080B200F0DFFF002080BD0000EFF305804C
:1040B00000281CBF6FF00500704740F2A400C2F258
:1040C00000000168002911BF4FF0FF30012101609D
:1040D00000207047EFF3058000281CBF6FF005003B
:1040E000704740F2A400C2F20000016801291CBF21
:1040F0004FF0FF30704780B54EF61F51CEF20001F1
:1041000000220A700221016001F0C6F8002080BD83
:1041100070B584B00B46002100280391EFF30581B0
:1041200050D000294ED142B3D2F818E0BEF1000FB2
:1041300008BF4FF0180EBEF1380F1BD81179C90710
:1041400018D15569946811684FEA950C002D08BF85
:104150004FF0800C44B1D6685C2E04D31669002E53
:1041600018BF002D20D10CB9D468C4B1002500249B
:104170005DB91DE0002004B070BD012400214FF0A6
:10418000180E4FF0800C002595B1946812690294C6
:10419000CDE900E2624601F001FD039012E01469EE
:1041A000B4FA84F46409EEE700240125002DECD173
:1041B00044B103AC1FFA8CF2CDE900E401F07CFCC1
:1041C000012802D1039804B070BD0020E5E710B5C6
:1041D00088B00446084611466B462246FFF744FC69
:1041E000DDE900016161206108B010BD2DE9F047F3
:1041F000044600F03DFE42F25870C2F20000016831
:1042000040F2D42701310160C2F20007396842F65A
:10421000EC6A40F2EC26C2F2000AC2F2000651B18A
:10422000DAF8000000283ED13868E16AC06A8842A6
:1042300098BF3C6037E03C600068012833D100251E
:10424000701900F0CFFD1435B5F58C6FF8D142F63A
:104250005068C2F20008404600F0C4FD42F66469AE
:10426000C2F20009484600F0BDFD42F69860C2F275
:10427000000000F0B7FD42F60C70C2F2000000F042
:10428000B1FD42F6F860C2F2000000F0ABFD40F272
:10429000DC20C2F20000C0F8008040F2E420C2F24C
:1042A0000000C0F8009042F26470C2F200000168A1
:1042B00001310160616442F26871C2F20001E06A9A
:1042C0000A68904288BF086000EB800006EB80001F
:1042D000211D00F0B5FD00F0EFFDDAF8000088B117
:1042E0003868E16AC06A884228BFBDE8F0874EF6A8
:1042F0000450CEF200004FF080510160BFF34F8FA9
:10430000BFF36F8FBDE8F08770B582B000F0B0FDED
:1043100042F62476C2F20006306850BB42F62464AE
:10432000C2F20004204600F05DFD42F63865C2F29C
:104330000005284600F056FD40F2D820C2F20000E9
:10434000046040F2E820C2F2000040F2E01240F2C5
:10435000802305600025C2F20002C2F200030A2099
:104360001021009501F004F9306010B103A100F0B4
:1043700041FE02B0BDE8704000F09EBD546D725128
:104380000000000042F25C7540F2EC2A4EF6045840
:1043900042F60C7742F25876C2F20005C2F2000AE9
:1043A000CEF200084FF08059C2F20007C2F20006B8
:1043B00003E000BF204600F097FD2868C8B100F078
:1043C00057FDF868C468201D00F0DEFC3068013835
:1043D000306028680138286000F06EFD94F85900BC
:1043E0000228EAD00128E5D070B9206B00F07CFDEE
:1043F000E0E7DAF800000228DFD3C8F80090BFF346
:104400004F8FBFF36F8FD8E74FF0500080F31188C4
:10441000BFF36F8FBFF34F8FFEE7000008480068BF
:10442000006880F308884FF0000080F3148862B6BB
:1044300061B6BFF34F8FBFF36F8F00DF00BF000087
:1044400008ED00E02DE9F04F85B0824601F030FC28
:1044500040F2D029C2F20009B9F80010054688429E
:104460004BD240F2D824C2F200042068016800292F
:1044700045D042F6247BC2F2000B08E0B8802068E9
:1044800031463F6100F0BEFC20680168B9B3C068E6
:10449000C768B0F800803E1D304600F075FC396AF0
:1044A0003846884797F828004007EDD5388B4044B8
:1044B00081B24145E2D897B3DBF8000080B100201B
:1044C0000190ADF80880039701F0DEFBDBF80000F7
:1044D00001A90022002301F0B9F80028D4D102E09C
:1044E00000200028D0D14FF0500080F31188BFF396
:1044F0006F8FBFF34F8F00BFFEE7002007E040F251
:10450000E821C2F200010A68086001202260CAF8AE
:1045100000002846A9F8005005B000F00AB84FF096
:10452000500080F31188BFF36F8FBFF34F8F00BF30
:10453000FEE730BCBDE8C08F81B00020009040F2A3
:104540000C00C2F2000000684FF0500181F31188A6
:10455000BFF36F8FBFF34F8F013001D0FEE700BF75
:1045600000980028FCD001B0704700008AB040F2EB
:10457000D82A40F2E82842F62475C2F2000A0DF16A
:10458000080BC2F20008C2F200050DF1040900BFD9
:10459000DAF800004646076827B1C068B0F8008026
:1045A00002E000BF4FF0000800F0C8FE5846FFF7D9
:1045B00049FF029921B101F0DDFCB04686E000BF61
:1045C000D7B1804518D85446824601F0D3FC206804
:1045D000C068C7683C1D204600F0D6FB97F828004D
:1045E00041070CD440F2D82A00F0FA00C2F2000AC7
:1045F00087F82800B04660E0BFB100221AE0388B8F
:104600003F6100EB080291B25145BA802AD9C245F8
:1046100001D2414535D240F2D82AC2F2000ADAF876
:104620000000214600F0EEFBE4E731680968B1FACA
:1046300081F14A092B68A8EB000081B2184600F00E
:10464000EDFC01F097FC0028B0463FD14EF6045037
:10465000CEF200004FF080510160BFF34F8FBFF3E7
:104660006F8F33E0AAEB080189B2814209D230682A
:104670002146B04600F0C6FB40F2D82AC2F2000A3A
:104680001BE040F2D82A002FC2F2000A00F0C780D7
:10469000286868B100200690ADF81C80089701F0EA
:1046A000F3FA286806A90022002300F0CFFF00E0FB
:1046B0000020B046002800F0BC80396A38468847A0
:1046C00004E0DAF8000000F09DFB00BF28685946BE
:1046D000002201F0CDF800283FF45AAF0298B0F163
:1046E000FF3F03DCDDE9032005999047029800288D
:1046F000ECD4049F786910B1381D00F045FB4846A2
:10470000FFF7A0FE02990929E0D8DFE801F00505CE
:1047100005573F5E0505573F97F82810BDF80C2058
:104720003B8B41F001019C1887F82810A6B239464E
:1047300021F8044F86423F6104D99042C1D296428B
:1047400004D2BEE7801A80B2984232D3396A384622
:10475000884797F828004007B8D5002F55D028681B
:10476000D8B3BDF80C00398B089708440021069196
:10477000ADF81C0001F088FA286806A90022002381
:1047800000F064FF00287FF4A1AF2AE097F828101A
:1047900041F00102BDF80C1087F82820398351B38D
:1047A0000A1893B2394621F8042F83423F613FF63D
:1047B00088AFD8F8000000F025FB87E797F82800BD
:1047C00000F0FE0087F8280080E797F828008107AE
:1047D000F6D4384600F088FB78E7002000287FF404
:1047E00075AF4FF0500080F31188BFF36F8FBFF3A8
:1047F0004F8F00BFFEE74FF0500080F31188BFF3EA
:104800006F8FBFF34F8F00BFFEE74FF0500080F374
:104810001188BFF36F8FBFF34F8F00BFFEE74FF0DC
:10482000500080F31188BFF36F8FBFF34F8F00BF2D
:10483000FEE74FF0500080F31188BFF36F8FBFF396
:104840004F8F00BFFEE70000F0B581B0044600F0D6
:104850000FFB94F94560012E0FDB04F1240500BF26
:10486000286850B1284601F03DFB002818BF00F031
:104870005FFC70B2013E0128F2DCFF2684F845603F
:1048800000F01AFB00F0F4FA94F94470012F0EDBEB
:1048900004F11005286850B1284601F023FB0028D8
:1048A00018BF00F045FC78B2013F0128F2DC84F823
:1048B000446001B0BDE8F04000F0FEBAF0B581B050
:1048C000044600F03BFD40F2E021C2F2000108681E
:1048D000002842F64C60C2F2000003D0B4F1FF3F62
:1048E0002CDD2DE040F24C72C2F20002D31D5607BF
:1048F00002F5005618BF23F0070242F6F063C2F239
:1049000000030025C3E9002526F00703A3F10806EC
:104910000E6043E90255B31A0E68C2E9006342F61D
:104920008062C2F20002136042F67862C2F20002B4
:10493000136001220270B4F1FF3F01DC0278C2BBB8
:104940003CB162071ABF24F0070202F110040834D8
:1049500000E0002442F6786EC2F2000EDEF800207D
:10496000631E934225D242F6F063C2F200031E6832
:104970007568A54207D200BF326822B15568334638
:104980001646A542F8D30A68964212D0D3F800C062
:1049900037682A1B112A1F603FD333195D0719D0CE
:1049A0004FF0500080F31188BFF36F8FBFF34F8F2C
:1049B000FEE7002401F0DEFA600708D04FF0500057
:1049C00080F31188BFF36F8FBFF34F8FFEE7204650
:1049D00001B0F0BD42F6F065C2F200055A607460A5
:1049E0002C462D689D42FBD36268A7189F4203D1D5
:1049F0005B681A44234662605A689F18AF4201D030
:104A0000294606E009688D4203D0D5E900152A44FD
:104A10005A609C42196018BF236042F68061726838
:104A2000DEF80030C2F200010C689A1AA242CEF8F9
:104A3000002038BF0A60007842F68C627168C2F2CA
:104A40000002002818BF41F00041136800200CF15B
:104A50000804C6E90001581C1060ABE7034644F2A5
:104A6000395021F00101C0F600004FF0807C03E9CD
:104A700003106FF00201A3F1440043E909127047EB
:104A8000E0B500218DF806008DF80710ADF8041090
:104A9000FEF7E4FF12484FF0FF31022300910DF1C1
:104AA0000601406801AAFDF786FEFEF7D1FF9DF8DA
:104AB00005008CBDE0B540F080008DF807108DF842
:104AC0000600FEF7CBFF06480DF1060102224FF06B
:104AD000FF334068FDF7C0FDFEF7BAFF8CBD00BF95
:104AE00070000020024602480821FCF744BF00BFC6
:104AF0000004004840F080010120FFF7DBBF000008
:104B00002DE9F04FC9B000230DF1240A402B05D048
:104B1000CC5824BA4AF803400433F7E70021C029EF
:104B200018D00AEB01039E6B5C685D6A4FEA76471A
:104B300087EAF64787EA96264FEAF41787EAB447EA
:104B400087EAD4045AF8017004313C442C443444BC
:104B50001C64E4E700F1080BD0E900ECD0E905752E
:104B6000C369002408909BE8000B8DE8A808CDE9F4
:104B700006CECDE9049829463D465F46402C2BD011
:104B80008CEA08020CEA080621EA070002EA0E0293
:104B900072404FEABE0686EA7E3686EABE56324448
:104BA00005EA070630444FEAB71686EAF72686EA92
:104BB000776633441844194B53F8243018445AF894
:104BC0002430013418440B46024400EB090BC14663
:104BD000E046F4469646CEE7009803EB000A0198BB
:104BE000014402982B1803983C18049809EB00051F
:104BF000059808EB000606980CEB000707980EEBEB
:104C000000020898C0E90027C0E90265C0E9044332
:104C1000C0E9061A49B000F003B800BFAC6A00084A
:104C200030BCBDE8C08F2DE9F84F0546806A884644
:104C300005F12C0B411CA96280210BF80010A86A19
:104C400039280ED300213F2805D8421CAA620BF850
:104C50000010A86AF7E728465946FFF751FF0020E1
:104C6000A8620021372805D8421CAA620BF8001060
:104C7000A86AF7E7D5E908A907273824B7F1FF3F65
:104C80000CDDAE6A49462246701CA8625046FBF70E
:104C9000D1FB0BF80600083C013FEFE728465946D8
:104CA000FFF72EFF0020202808BF00F00FB82918BA
:104CB000CA7808F8002008EB00024988517029588A
:104CC000090A917029580430D170ECE718BCBDE88E
:104CD000E08F2DE9F84306460D46D0E90801144659
:104CE0004FF0000906F12C0810EBC20041EB5271A5
:104CF000C6E90801CCB1B16AC1F1400708EB010077
:104D00002946A74228BF27463A46FBF7E4FBB06A8C
:104D1000E41B3D4438444028B062EBD13046414664
:104D2000FFF7EEFEC6F82890E4E7BDE8F883000040
:104D300083B010B59FB0044621A80EC021AB7821E6
:104D40002246009301A8FBF789FB012806DB82B20B
:104D50000C4801A94FF0FF33FDF784FF1FB0BDE8F9
:104D6000104003B0704700BF10B50446FBF794FB3A
:104D700082B2044821464FF0FF33BDE81040FDF7F2
:104D800071BF00BF58010020D0E9013201699A606B
:104D9000D1F804C082688445536008BF4A6000228D
:104DA00002610868013808600868704742F66C13B1
:104DB000C2F20003036042F26C70C2F200000860AD
:104DC000802010607047000042F6C853C2F2000312
:104DD000036042F6C810C2F2000008604FF4807011
:104DE000106070474FF6FF71024622F8081F00213D
:104DF0004260C0E9032201607047000000210161A8
:104E00007047000080B5B1F800C04FF6FF729445BE
:104E100002D1D0F810E006E000F108039E465B687E
:104E20001A886245FAD9DEF8042008614A60916068
:104E3000C1F808E0CEF8041001680131016080BDBE
:104E4000D0F800C0436808619A684B608A609A682D
:104E5000996051600CF1010101607047DFF80C00AE
:104E6000016841F4700101607047000088ED00E0C6
:104E70004FF0500080F31188BFF36F8FBFF34F8F57
:104E800040F20C00C2F2000001684A1C026001B14D
:104E900070474EF60450CEF200000068000608BFCE
:104EA00070474FF0500080F31188BFF36F8FBFF34E
:104EB0004F8F00BFFEE7000040F20C00C2F200007E
:104EC000016839B10139016018BF7047002080F3D3
:104ED000118870474FF0500080F31188BFF36F8F37
:104EE000BFF34F8FFEE70000B0B5002808BFB0BD8C
:104EF00042F64C61C2F20001097850F8042C0029F6
:104F000018BF4FF0004111420DD0A0F108042368F2
:104F10009BB14FF0500080F31188BFF36F8FBFF348
:104F20004F8F00BFFEE74FF0500080F31188BFF3B2
:104F30006F8FBFF34F8F00BFFEE722EA010140F8F9
:104F4000041C054600F0FAF942F67861C2F200014D
:104F500055F8040C0B682A461844086042F6F061C4
:104F6000C2F2000108460968A142FBD34368C51894
:104F7000A54204D152F8042C04461A4442606368E6
:104F8000E2188A4201D00A460AE040F2E022C2F268
:104F900000021268914203D0D1E9002119446160F6
:104FA000A042226018BF046042F69060C2F2000086
:104FB000016801310160BDE8B04000F0DBBF0000D6
:104FC0004EF21000CEF2000000210160816040F23C
:104FD0000801C2F20001096844F6D352C1F262022C
:104FE000A1FB02124FF0FF3101EB9211416007214A
:104FF0000160704742F6AC6C0022C2F2000C03E084
:105000000132082A08BF70475CF83230002BF7D114
:105010000CEBC2034CF832105860704770B515465F
:105020000E460446FFF724FF94F84400FF2804BF0F
:10503000002084F8440094F84500FF2804BF0020B5
:1050400084F84500FFF738FFA06B28B904F124006D
:1050500031462A4600F0C4F82046BDE87040FFF70C
:10506000F3BB000070B5002847D042F26071C2F275
:1050700000010A684AB14FF0500080F31188BFF375
:105080006F8FBFF34F8F00BFFEE70A6840F2D42551
:1050900001320A6042F62071C2F20001C2F200053C
:1050A0000C882968064604310846FFF76DFE344433
:1050B000A6B22868A642848009D040F2E420C2F259
:1050C0000000006829680431FFF79CFE10E040F200
:1050D000DC20C2F20000006829680431FFF792FE6C
:1050E00042F68460C2F2000001888E4238BF04801C
:1050F00000F040FF002818BF70BD4EF60450CEF2FD
:1051000000004FF080510160BFF34F8FBFF36F8FEE
:1051100070BD000042F68861C2F2000109680160BA
:1051200042F62071C2F200010988818070470000B8
:1051300042F62C70C2F200000121016070470000AD
:1051400070B530B340F2D425C2F200050C46296890
:105150001831FFF757FE42F62070C2F200000688B1
:1051600028680430FFF710FE4FF6FF7084421AD013
:105170003444A6B22868A64284801ED040F2E420BF
:10518000C2F20000006829680431BDE87040FFF7F2
:1051900039BE4FF0500080F31188BFF36F8FBFF31B
:1051A0004F8F00BFFEE72868011D42F6F860C2F28B
:1051B0000000BDE87040FFF743BE40F2DC20C2F2C1
:1051C0000000006829680431FFF71CFE42F6846085
:1051D000C2F2000001888E4238BF048070BD00001A
:1051E000F0B581B038B340F2D426C2F200060C46C6
:1051F000316815461831FFF723FE42F62070C2F2DF
:105200000000002D18BF4FF0FF34078830680430CD
:10521000FFF7BAFDCDB14FF6FF70A1B2814214D1B4
:105220003068011D42F6F860C2F2000001B0BDE82E
:10523000F040FFF705BE4FF0500080F31188BFF338
:105240006F8FBFF34F8F00BFFEE717FA84F4A5B24C
:105250003068A54284800BD040F2E420C2F2000006
:1052600000683168043101B0BDE8F040FFF7CABD05
:1052700040F2DC20C2F20000006831680431FFF720
:10528000C1FD42F68460C2F2000001888D4238BF41
:10529000048001B0F0BD0000B0B586B0002405A8C0
:1052A00004A903AACDE90444FFF780FDDDE903204A
:1052B000059DCDE9004044F28530C0F600001DA1F7
:1052C0000023029500F06AFC42F67C60C2F2000006
:1052D000056015B100F0EEFE0446601C20D0012CE4
:1052E0001CD14FF0500080F31188BFF36F8FBFF3D4
:1052F0004F8F42F68460C2F200004FF6FF710180CA
:1053000042F6EC60C2F200000121016042F620701A
:10531000C2F200000021018000F062F806B0B0BDCA
:105320004FF0500080F31188BFF36F8FBFF34F8FA2
:10533000FEE700BF49444C450000000042F26070A7
:10534000C2F20000016801310160704742F26070F2
:10535000C2F20000006830B142F62C70C2F20000C8
:1053600001210160704742F62C70C2F2000000215A
:1053700042F2687C0160C2F2000CDCF8001040F2DE
:10538000EC2301EB8102C2F2000353F8220003EB8D
:105390008202C0B15068436802F108008342536042
:1053A00001D158685060506840F2D422C068C2F2FF
:1053B00000021060CCF80010704700BF52F8140DC6
:1053C00001390028E6D10029F8D14FF0500080F3D0
:1053D0001188BFF36F8FBFF34F8F00BFFEE7000050
:1053E00070B584B04EF20040CEF200004CF2702155
:1053F000C4F20F11D0F800294B1C9A4209D14FF08A
:10540000500080F31188BFF36F8FBFF34F8F00BF41
:10541000FEE7D0F800298A4209D14FF0500080F30E
:105420001188BFF36F8FBFF34F8F00BFFEE70021DE
:105430000191017842F24C728DF80B10FF2101703E
:105440000178C2F200028DF803109DF8031011F0EC
:105450005001117060D09DF8031001F050015029E7
:1054600063D19DF90310B1F1FF3F0BDC01990131CC
:1054700001919DF8031049008DF803109DF9031068
:105480000029F3D40199002408294FF0000106D027
:1054900001994FF4E062A2EB012101F4E06142F2D4
:1054A0005072C2F2000211609DF80B104EF62055AA
:1054B0000170CEF20005286840F47F00286028685B
:1054C00040F07F40286045F8044CFFF779FD40F23A
:1054D0000C06C2F200063460FFF7C0FCD5F81402D7
:1054E00040F04040C5F81402FEF798FFFFF72EFF8A
:1054F000039430684FF0500181F31188BFF36F8F30
:10550000BFF34F8F013001D0FEE700BF03980028A2
:10551000FCD0002004B070BD4FF0500080F3118823
:10552000BFF36F8FBFF34F8FFEE74FF0500080F354
:105530001188BFF36F8FBFF34F8F00BFFEE70000EE
:1055400080B54FF0500080F31188BFF36F8FBFF329
:105550004F8F00F0B9FB30B14EF60450CEF2000090
:105560004FF080510160002080F3118880BD000061
:1055700070B582B058B1A3B1E9B9E2B14FF05000B3
:1055800080F31188BFF36F8FBFF34F8FFEE74FF0AB
:10559000500080F31188BFF36F8FBFF34F8F00BFB0
:1055A000FEE74FF0500080F31188BFF36F8FBFF319
:1055B0004F8F00BFFEE751B14AB94FF0500080F362
:1055C0001188BFF36F8FBFF34F8F00BFFEE75025E9
:1055D0000195019D502D2ED1019C069E012483F83A
:1055E0004640002908BF1A461A60C3E90F011C464D
:1055F000FFF73EFC2068D4E90F12002502FB0103EF
:10560000013901FB0201A563C4E90103FF20E16048
:1056100084F8440084F8450004F11000FFF7E2FB31
:1056200004F12400FFF7DEFBFFF746FC204684F878
:105630004C6002B070BD4FF0500080F31188BFF392
:105640006F8FBFF34F8F00BFFEE700002DE9F04FD3
:1056500085B0ADF81220C0B11D460446F9B1022D47
:1056600003D1E06B012840F0AA80019100F00CFB0F
:1056700008BBBDF81200F0B14FF0500080F3118864
:10568000BFF36F8FBFF34F8FFEE74FF0500080F3F3
:105690001188BFF36F8FBFF34F8F00BFFEE7206C01
:1056A0000028DCD04FF0500080F31188BFF36F8FDB
:1056B000BFF34F8FFEE7FFF7DBFBA06B022D60D03F
:1056C000E16B88425DD304F11006012002AF4FF078
:1056D000000B0DF1120800BFBDF81210002900F0F8
:1056E0008380C00702D03846FFF714FDFFF7E4FBC4
:1056F000FFF724FEFFF7BCFB94F84400FF2808BF27
:1057000084F844B094F84500FF2808BF84F845B0F9
:10571000FFF7D2FB3846414600F084F9002866D1F5
:10572000FFF7A6FBD4F838A0D4F83C90FFF7C4FBF1
:10573000CA4517D1BDF812103046FFF701FD2046CB
:10574000FFF782F800F016FC88B94EF60450CEF24E
:1057500000004FF080510160BFF34F8FBFF36F8F98
:1057600005E000BF2046FFF76FF800F003FCFFF7ED
:105770007FFBA06B022D04D0E16B88424FF000004C
:10578000AAD2A66B226C01991AB3CDB3E068FAF7DE
:10579000A2FEE168206C2268091A9142E16003D2FE
:1057A000A16840420844E060A81EB0FA80F04009B9
:1057B0003146002E18BF01210840361A2CE04FF068
:1057C000500080F31188BFF36F8FBFF34F8F00BF7E
:1057D000FEE7206800BBA06800F036FB0021B0FAAD
:1057E00080F0A160400918E0FFF766FB04E0204666
:1057F000FFF72AF800F0BEFB002005B000F034B837
:105800006068FAF768FED4E90101226C104488420E
:10581000606001D3206860600120711CA16354F8AE
:10582000241F79B1204600F05DFBB8B14EF604505C
:10583000CEF200004FF080510160BFF34F8FBFF3F5
:105840006F8F0BE050B94EF60450CEF200004FF0CF
:1058500080510160BFF34F8FBFF36F8FFFF72CFBB9
:10586000012005B000F000B830BCBDE8C08F0000DA
:105870002DE9F04F85B0ADF81220A0B10C460546D9
:10588000002900F0B98000F0FFF9B0B9BDF81200AE
:1058900098B14FF0500080F31188BFF36F8FBFF3C2
:1058A0004F8F00BFFEE74FF0500080F31188BFF329
:1058B0006F8FBFF34F8F00BFFEE705F1100001901F
:1058C00005F1240000900DF108090DF1120A4FF0C6
:1058D00000080CE02846FEF7B7FF00F04BFBFFF78F
:1058E000C7FAAF6BFFF7E8FA002F00F09280FFF7DE
:1058F000BFFAD5F838B0BBF1000F27D02A6C5AB1E7
:10590000D5E902011144E960814224BF2868E860BA
:10591000E9682046FAF7DFFDABF10100A8632869CA
:1059200070B1019800F0DEFA50B14EF60450CEF29C
:1059300000004FF080510160BFF34F8FBFF36F8FB6
:10594000FFF7BAFA00200126A0B963E0BDF8120003
:1059500050B1B8F1000F02D14846FFF7DBFB4FF022
:105960000108012030B955E0FFF7A6FA0026002013
:1059700000284FD0FFF7A0FAFFF7E0FCFFF778FA16
:1059800095F84400FF2804BF002085F8440095F8EE
:105990004500FF2804BF002085F84500FFF78CFA7A
:1059A0004846514600F03EF800287FF493AFFFF7D9
:1059B0005FFAAF6BFFF780FA2FB12846FEF744FF7E
:1059C00000F0D8FA93E7BDF812100098FFF7B8FB83
:1059D0002846FEF739FF00F0CDFA00287FF487AFA4
:1059E0004EF60450CEF200004FF080510160BFF33C
:1059F0004F8FBFF36F8F7AE7286C00283FF443AFD7
:105A00004FF0500080F31188BFF36F8FBFF34F8FBB
:105A1000FEE70026304605B000F000B830BCBDE817
:105A2000C08F000070B550B30C4691B30546FFF728
:105A30001FFA42F6207EC2F2000EBEF80030228825
:105A40004FF6FF7082422ED042F6886C2946C2F291
:105A5000000CA888DCF800500E68B54201D08342E3
:105A600025D2181A83B29A421FD9101A2080DCF866
:105A7000000000240860BEF80000888018E04FF0A5
:105A8000500080F31188BFF36F8FBFF34F8F00BFBB
:105A9000FEE74FF0500080F31188BFF36F8FBFF324
:105AA0004F8F00BFFEE7002402E000202080012489
:105AB000FFF702FA204670BD2DE9F04F81B0950046
:105AC00081462846984692460F46FEF7F7FE78B183
:105AD00004465C20FEF7F2FE38B10646046356B970
